:020000040000FA
:04000000FEEF17F008
:10214600120094500F09946E1200956A9250F00B8B
:10215600926E8050F00B806E1200C6EC10F0A8EC68
:1021660010F0A4EC10F052EC11F01200F62FEC2F48
:10217600EE2FF02FF22FF42FF82FE721CB6B2D6ED9
:10218600EE23EF6F10E6C08EC09AC088C096C0904E
:10219600C082C094C292C19AC198C46AC36AC280FE
:1021A6001200220E246E1FC025F0000E286E000EAF
:1021B600276E000E2F6E000E2E6E250E196E20C095
:1021C6001AF021C01BF0240E1C6E0EEC11F01F50ED
:1021D6002724D96EDA6ADF6A120001C003F0070EFF
:1021E6000316050E046ED8900336042EF6EF10F093
:1021F60003500F01426F01C003F002C004F0D890F3
:1022060004320332D89004320332D89004320332B7
:102216000350416F12001AC01DF01BC01EF01CEFC8
:1022260011F019C00DF01D0E0E6E1CC00FF069ECFA
:1022360013F01DC0F6FF1EC0F7FF0800F550000999
:10224600D8A428EF11F02AEF11F014EF11F0000EC8
:102256001A6E000E196E1200076E07C003F0D890B2
:102266000336D8900336C250C30B0310C26EC28227
:10227600C2B240EF11F042EF11F03BEF11F0C35044
:10228600C4CF03F0046A03C004F0036A0310056EAA
:102296000450066E05C001F006C002F012009394C9
:1022A60093861F0E6F166F8E800E6E18D8A45EEF83
:1022B60011F060EF11F057EF11F0776AE10E706ED2
:1022C6001B0E716E030E726E0D01D46B1F0E6F1610
:1022D6006F506E50D8A472EF11F074EF11F06CEFDE
:1022E60011F0606A608A608C1200720EF66E210E22
:1022F600F76E000EF86E00EE80F010EE1AF0090090
:10230600F5CFEEFFE550E150FAE1000EF66E300E25
:10231600F76E000EF86E0900F5CF55F000EE60F08E
:10232600200EEE6AE806FDE100EE40F0150EEE6ABC
:10233600E806FDE1000EF86E000106EF15F00A5002
:102346000B10D8B4A9EF11F0ABEF11F0CFEF11F0ED
:10235600010E0C6EB3EF11F0D8900A360B360C2A2C
:102366000BAEB8EF11F0BAEF11F0AFEF11F00A5063
:10237600085C0B500958D8A0C3EF11F0C5EF11F057
:10238600C9EF11F00A50085E0B50095AD8900B326B
:102396000A320C2EBAEF11F008C008F009C009F095
:1023A6001200016E0104D8A4DBEF11F0DDEF11F08D
:1023B60002EF12F082500F0B0F0AD8B4E5EF11F0BE
:1023C600E7EF11F0F4EF11F05550D8B4EDEF11F03E
:1023D600EFEF11F0F4EF11F0556A82500F0B0DEF8D
:1023E60012F082500F0B0F0AD8A4FCEF11F0FEEF8B
:1023F60011F00CEF12F0010E556E0CEF12F00150B9
:10240600D8A408EF12F00AEF12F00CEF12F0F0EF7A
:1024160011F0FF0E1200000E066E000E056E035040
:102426000410D8B419EF12F01BEF12F043EF12F0BC
:10243600010E076E23EF12F0D89003360436072AF2
:1024460004AE28EF12F02AEF12F01FEF12F0D89028
:10245600053606360350015C04500258D8A036EF04
:1024660012F038EF12F03DEF12F00350015E045007
:10247600025A0580D89004320332072E2AEF12F052
:1024860005C001F006C002F012000F01436B446B59
:1024960005C001F006C002F0F0EC10F009C045FFDF
:1024A600460E0D6E0F0E0E6E000E106E000E0F6EA7
:1024B6007CEF12F00F5007240A6E105008200B6EA6
:1024C6000AC0F6FF0BC0F7FFF86A0F500D24D96E4D
:1024D60010500E20DA6E050EF76403D00800F55092
:1024E60005D0F6CFE1FFF7CFE2FFE750DF6E0F4AE8
:1024F600102A09500A6E0B6A0A500F5C1050800AA7
:102506000C6E0B50800A0C58D8A08CEF12F08EEF90
:1025160012F05DEF12F00F01408712000350D8B49D
:1025260097EF12F099EF12F0A1EF12F00350D8A432
:102536009FEF12F0A1EF12F0A6EF12F00150A3ECFC
:1025460010F0E5EF12F00350D96EDA6A090ED926BB
:10255600DE50DE10D8B4B2EF12F0B4EF12F0CDEFC9
:1025660012F00350D96EDA6A090ED9260350E16ECD
:10257600E26A020EE126DE50E65CE650800A086E4C
:10258600DE50800A0858D8B0CBEF12F0CDEF12F02B
:10259600E5EF12F00350D96EDA6A020ED926DF5043
:1025A600046E0350D96EDA6ADF500424D96EDA6AF3
:1025B60001C0DFFF0350D96EDA6A020ED926DE2A81
:1025C600000EDD2212002A342B34316E3150D8A48D
:1025D600EFEF12F0F1EF12F0FBEF12F0000E286EA3
:1025E600000E296E000E2A6E000E2B6E68EF13F099
:1025F60028C02CF029C02DF02AC02EF02BC02FF0B9
:10260600200E0BEF13F0D8902F322E322D322C32B3
:10261600E82E06EF13F02C50306E2A8EFF0E281689
:10262600FF0E2916FF0E2A16000E2B16960E315E89
:1026360031BE22EF13F020EF13F038EF13F03150D4
:10264600800A970FD8B02AEF13F02CEF13F02EEF75
:1026560013F0F1EF12F0D8902B322A3229322832B9
:10266600313E2EEF13F050EF13F01F0E31643EEFA4
:1026760013F040EF13F048EF13F0F1EF12F0D8909B
:10268600283629362A362B3631063150D8A44EEF55
:1026960013F050EF13F042EF13F03050D8B456EF6A
:1026A60013F058EF13F060EF13F02B1E2A1E291EAD
:1026B600286C000E29222A222B2228C028F029C0A5
:1026C60029F02AC02AF02BC02BF012000E50D96E2A
:1026D600DA6ADECFF6FFDDCFF7FF0800F550250AF0
:1026E600D8A478EF13F07AEF13F01AEF14F00E5027
:1026F600D96EDA6ADE2A000EDD22000E496E000E61
:10270600486E48C04CF04A684B680E50D96EDA6A7B
:10271600DECF12F0DDCF13F012C0F6FF13C0F7FFC5
:102726000800F550750AD8A49BEF13F09DEF13F03F
:1027360012EF14F00F50D96EDA6A020EDF26DF5C54
:10274600D96EDA6ADECF14F0DECF15F0010E122450
:10275600106E000E1320116E0E50D96EDA6A10C07C
:10276600DEFF11C0DDFF06EF14F0200E186E18060E
:102776001850600FD96EDA6A14C008F015C009F057
:10278600000E0B6E0A0E0A6EA2EC11F00850300F06
:10279600DF6E14C001F015C002F0000E046E0A0EC2
:1027A600036E0EEC12F001C014F002C015F01450C6
:1027B6001510D8B4E1EF13F0E3EF13F0FBEF13F0CD
:1027C6001850D8A4E9EF13F0EBEF13F0BAEF13F0BB
:1027D600FBEF13F01850600FD96EDA6ADF50106EF7
:1027E6001050016E026A0DC003F091EC12F0182A27
:1027F600200E1818D8A402EF14F004EF14F0EDEF31
:1028060013F02BEF14F012C0F6FF13C0F7FF080009
:10281600F550750AD8B4B8EF13F012EF14F00E5055
:10282600D96EDA6ADE2A000EDD222BEF14F00E5086
:10283600D96EDA6ADECFF6FFDDCFF7FF0800F55076
:10284600016E026A0DC003F091EC12F012EF14F063
:102856001200096E0950D8B433EF14F035EF14F0B6
:1028660057EF14F004BE3CEF14F03AEF14F057EFB4
:1028760014F001C005F002C006F003C007F004C062
:1028860008F0051E061E071E081E052A000E062253
:102896000722082205C00BF006C00CF007C00DF099
:1028A60008C00EF05FEF14F001C00BF002C00CF090
:1028B60003C00DF004C00EF0015002100310041006
:1028C600D8A468EF14F06AEF14F074EF14F0000E59
:1028D600016E000E026E000E036E000E046E05EF12
:1028E60015F0960E0A6E7EEF14F00A2AD8900E3274
:1028F6000D320C320B32000E0B14056E000E0C144A
:10290600066E000E0D14076EFE0E0E14086E0550B0
:10291600061007100810D8A493EF14F095EF14F0E2
:1029260078EF14F0A3EF14F00A2A010E0B26000E1E
:102936000C220D220E22D8900E320D320C320B32A2
:10294600000E0B14056E000E0C14066E000E0D1410
:10295600076EFF0E0E14086E0550061007100810BD
:10296600D8A4B8EF14F0BAEF14F097EF14F0C2EF52
:1029760014F00A06D8900B360C360D360E360DBE00
:10298600C7EF14F0C9EF14F0D1EF14F0020E0A608D
:10299600CFEF14F0D1EF14F0BCEF14F00AB0D6EF7D
:1029A60014F0D8EF14F0D9EF14F00D9ED8900A3237
:1029B6000AC005F0066A076A086A05C008F0076AD1
:1029C600066A056A05500B1206500C1207500D12C6
:1029D60008500E120950D8B4F3EF14F0F5EF14F0C6
:1029E600FDEF14F004BEFCEF14F0FAEF14F0FDEF67
:1029F60014F00E8E0BC001F00CC002F00DC003F0F7
:102A06000EC004F01200000E3C6E000E3B6E000E6F
:102A1600376E000E366E3D6A000E396E000E386E49
:102A2600B0EC10F0040E2FEC11F001C034F002C02F
:102A360035F0AE0E136E470E146E250E156E410E52
:102A4600166E34C001F035C002F0036A046A000E47
:102A56002CEC14F001C00FF002C010F003C011F00E
:102A660004C012F02CEC16F00FC028F010C029F0AC
:102A760011C02AF012C02BF0E6EC12F028C03EF08E
:102A860029C03FF03E50381809E13F503918D8B4F4
:102A96004FEF15F051EF15F06CEF15F03EC038F022
:102AA6003FC039F04D0E1F6EE90E206E2F0E216EBF
:102AB6003EC022F03FC023F0D4EC10F0000E066EAC
:102AC600100E056E4D0E076E086A020E096E48EC72
:102AD60012F0010ED4EC11F03A6E0E0E3A18D8A48C
:102AE60077EF15F079EF15F086EF15F0060E3D60DD
:102AF6007FEF15F081EF15F086EF15F03B4A3C2A83
:102B06003D2A9BEF15F00D0E3A18D8A48DEF15F05F
:102B16008FEF15F09BEF15F03D50D8B495EF15F0FB
:102B260097EF15F09BEF15F03D063B06D8A03C0647
:102B36003EC008F03FC009F0000E0B6E0A0E0A6E8A
:102B4600A2EC11F008508E0FD96EDA6ADF50416E92
:102B5600000E046E0A0E036E3EC001F03FC002F086
:102B66000EEC12F001C008F002C009F0000E0B6E68
:102B76000A0E0A6EA2EC11F008508E0FD96EDA6AB0
:102B8600DF50406E010E4426000E452246224722A3
:102B960047504610451009E1C80E445CD8A0D6EF50
:102BA60015F0D8EF15F0E0EF15F0000E446E000EAC
:102BB600456E000E466E000E476E47504610451095
:102BC60007E1640E445CD8B0EBEF15F0EDEF15F0BD
:102BD600F3EF15F0000199511009426EF5EF15F06B
:102BE60099C042F03D508E0FD96EDA6ADF50436EBF
:102BF6003B50361809E13C503718D8B405EF16F0AB
:102C060007EF16F01DEF16F03BC036F03CC037F06C
:102C1600000E066E200E056E3B50020DF350800F1F
:102C2600D96EDA6ADECF07F0DDCF08F0010E096E45
:102C360048EC12F0060E336E130E326EAE0EE82E10
:102C4600FED7322EFCD7332EFAD715EF15F0FEEF4E
:102C560017F01250800B1F6E12501224266E11AE02
:102C660037EF16F039EF16F03AEF16F026802650B9
:102C7600D8B440EF16F042EF16F056EF16F02628BD
:102C8600D8A448EF16F04AEF16F052EF16F0000EF1
:102C96000F6E000E106E000E116E000E126E118E6B
:102CA600126A5EEF16F0000E0F6E000E106E000E2A
:102CB600116E000E126E1650800B1F1A1650162437
:102CC600276E15AE69EF16F06BEF16F06CEF16F087
:102CD60027802750D8B472EF16F074EF16F088EFFD
:102CE60016F02728D8A47AEF16F07CEF16F084EFBA
:102CF60016F0000E136E000E146E000E156E000E0A
:102D0600166E158E166A90EF16F0000E136E000EF4
:102D1600146E000E156E000E166E1350141015105C
:102D26001610D8A499EF16F09BEF16F0B3EF16F035
:102D3600000E0F6E000E106E000E116E000E126E5B
:102D4600800E11127F0E12121F5012120FC00FF0BA
:102D560010C010F011C011F012C012F0F3EF17F00E
:102D66002650D8A4B9EF16F0BBEF16F0C5EF16F053
:102D7600000E0F6E000E106E000E116E000E126E1B
:102D8600F3EF17F0275026C017F0186A175E000EEB
:102D9600185A7F0E1724206E000E1820216E0FC0C1
:102DA6001BF010C01CF011C01DF012C01EF0000E6A
:102DB6000F6E000E106E000E116E000E126E000EDB
:102DC600226E000E236E000E246E000E256E276AFC
:102DD60025EF17F02750D8B4F3EF16F0F5EF16F0FD
:102DE6000CEF17F0D8901B361C361D361E36D890C1
:102DF6000F3610361136123625AE04EF17F006EFF1
:102E060017F007EF17F00F80D890223623362436B6
:102E1600253613501B5C14501C5815501D5816505F
:102E26001E58D8A019EF17F01BEF17F024EF17F074
:102E3600258C13501B5E14501C5A15501D5A1650E3
:102E46001E5A272A190E27642BEF17F02DEF17F0BD
:102E5600EDEF16F01B501C101D101E10D8B436EFE7
:102E660017F038EF17F050EF17F0228050EF17F0F9
:102E7600D8900F3610361136123625AE45EF17F0BC
:102E860047EF17F048EF17F00F80D8902236233619
:102E9600243625362006D8A0210611AE55EF17F0A8
:102EA60057EF17F03BEF17F0276A25AE5DEF17F0E7
:102EB6005FEF17F083EF17F0FF0E2214176EFF0E69
:102EC6002314186EFF0E2414196E7F0E25141A6E25
:102ED6001750181019101A10D8B474EF17F076EFAF
:102EE60017F07AEF17F0010E276E83EF17F00FA099
:102EF6007FEF17F081EF17F083EF17F076EF17F0FB
:102F06002750D8B489EF17F08BEF17F0AFEF17F013
:102F1600010E0F26000E10221122122212A096EF89
:102F260017F098EF17F0AFEF17F00FC017F010C0BB
:102F360018F011C019F012C01AF01A341A321932E8
:102F46001832173217C00FF018C010F019C011F060
:102F56001AC012F0204A212A21BEBAEF17F02150DA
:102F660008E12028D8A0BAEF17F0BCEF17F0C7EF9A
:102F760017F0000E216E2068000E0F6E000E106E08
:102F8600000E116E000E126E21BED4EF17F0215006
:102F960006E12004D8B0D2EF17F0D4EF17F0E1EF36
:102FA60017F0000E216E000E206E000E0F6E000E42
:102FB600106E000E116E000E126E1F6A20C026F0F3
:102FC60026A0E8EF17F0EAEF17F0EDEF17F0118EF5
:102FD600EEEF17F0119ED8902630126EA7EF16F07E
:102FE6001200002575003100320033003400350030
:052FF6004E0052000036
:052FFC0078EF11F00167
:020000040020DA
:08000000FFFFFFFFFFFFFFFF00
:020000040030CA
:0E000000FF071F1FFF8285FF0FC00FE00F409C
:00000001FF
