:020000040000FA
:04000000FEEF17F008
:0A1F3200120094500F09946E120083
:101F3D00E721CB6B2D6EEE23EF6F01956A9250F07A
:101F4D000B926E8050F00B806E1200080E936E8116
:101F5D006A9AEC0FF0A4EC0FF0B8EC0FF065EC10F2
:101F6D00F01200C08EC09AC088C096C090C082C0CA
:101F7D0094C292C19AC198C46AC36AC280120022E7
:101F8D000E246E1FC025F0000E286E000E276E0069
:101F9D000E2F6E000E2E6E250E196E20C01AF0211A
:101FAD00C01BF0240E1C6E00EC10F01F502724D91E
:101FBD006EDA6ADF6A120001C003F0070E03160520
:101FCD000E046ED8900336042EE8EF0FF003500F79
:101FDD0001426F01C003F002C004F0D89004320337
:101FED0032D89004320332D8900432033203504178
:101FFD006F12001AC01DF01BC01EF00EEF10F0196D
:10200D00C00DF01D0E0E6E1CC00FF073EC12F01D06
:10201D00C0F6FF1EC0F7FF0800F5500009D8A41A3E
:10202D00EF10F01CEF10F006EF10F0000E1A6E001E
:10203D000E196E12003D0EF66E1F0EF76E000EF8A5
:10204D006E00EE50F010EE0BF00900F5CFEEFFE54F
:10205D0050E150FAE100EE60F0200EEE6AE806FD68
:10206D00E100EE45F00B0EEE6AE806FDE1000EF81C
:10207D006E000110EF14F0076E07C003F0D8900347
:10208D0036D8900336C250C30B0310C26EC282C243
:10209D00B253EF10F055EF10F04EEF10F0C350C4E7
:1020AD00CF03F0046A03C004F0036A0310056E0445
:1020BD0050066E05C001F006C002F0120093949315
:1020CD00861F0E6F166F8E800E6E18D8A471EF10CE
:1020DD00F073EF10F06AEF10F0776AE10E706E1B7F
:1020ED000E716E030E726E0D01D46B1F0E6F166F97
:1020FD00506E50D8A485EF10F087EF10F07FEF10E1
:10210D00F0606A608A608C1200066A01500624D95C
:10211D006EDA6ADF50836E06C002F0010E036E02A6
:10212D002A9BEF10F0D8900336022E99EF10F08015
:10213D0050F00B0310806E030E056EE80E046E0456
:10214D0006D8A00506042806E10528D8A4B1EF108D
:10215D00F0B3EF10F0A6EF10F0062A030E0664BAE6
:10216D00EF10F0BCEF10F08CEF10F012000A500BD6
:10217D0010D8B4C4EF10F0C6EF10F0EAEF10F00174
:10218D000E0C6ECEEF10F0D8900A360B360C2A0BD3
:10219D00AED3EF10F0D5EF10F0CAEF10F00A5008E3
:1021AD005C0B500958D8A0DEEF10F0E0EF10F0E412
:1021BD00EF10F00A50085E0B50095AD8900B320AF6
:1021CD00320C2ED5EF10F008C008F009C009F0123E
:1021DD00000F01436B446B05C001F006C002F0E235
:1021ED00EC0FF008C045FF460E0C6E0F0E0D6E0085
:1021FD000E0F6E000E0E6E12EF11F007500E24D959
:10220D006EDA6A0E500C24E16E0F500D20E26EDF77
:10221D00CFE7FF0E4A0F2A0850096E0A6A09500EC1
:10222D005C0F50800A0B6E0A50800A0B58D8A02202
:10223D00EF11F024EF11F004EF11F00F01408712B0
:10224D0000016E0104D8A42EEF11F030EF11F055FE
:10225D00EF11F082500F0B0F0AD8B438EF11F03A8E
:10226D00EF11F047EF11F05A50D8B440EF11F04292
:10227D00EF11F047EF11F05A6A82500F0B60EF111A
:10228D00F082500F0B0F0AD8A44FEF11F051EF1140
:10229D00F05FEF11F0010E5A6E5FEF11F00150D8A3
:1022AD00A45BEF11F05DEF11F05FEF11F043EF1153
:1022BD00F0FF0E1200000E066E000E056E035004A8
:1022CD0010D8B46CEF11F06EEF11F096EF11F00124
:1022DD000E076E76EF11F0D89003360436072A04F8
:1022ED00AE7BEF11F07DEF11F072EF11F0D890058C
:1022FD003606360350015C04500258D8A089EF1100
:10230D00F08BEF11F090EF11F00350015E045002CD
:10231D005A0580D89004320332072E7DEF11F00557
:10232D00C001F006C002F012000350D8B4A1EF11A5
:10233D00F0A3EF11F0ABEF11F00350D8A4A9EF11FA
:10234D00F0ABEF11F0B0EF11F0015099EC0FF0EF91
:10235D00EF11F00350D96EDA6A090ED926DE50DE80
:10236D0010D8B4BCEF11F0BEEF11F0D7EF11F003A0
:10237D0050D96EDA6A090ED9260350E16EE26A026F
:10238D000EE126DE50E65CE650800A086EDE5080D7
:10239D000A0858D8B0D5EF11F0D7EF11F0EFEF11C3
:1023AD00F00350D96EDA6A020ED926DF50046E039F
:1023BD0050D96EDA6ADF500424D96EDA6A01C0DFB3
:1023CD00FF0350D96EDA6A020ED926DE2A000EDD21
:1023DD002212002A342B34316E3150D8A4F9EF116A
:1023ED00F0FBEF11F005EF12F0000E286E000E2934
:1023FD006E000E2A6E000E2B6E72EF12F028C02C9E
:10240D00F029C02DF02AC02EF02BC02FF0200E1574
:10241D00EF12F0D8902F322E322D322C32E82E10B2
:10242D00EF12F02C50306E2A8EFF0E2816FF0E295B
:10243D0016FF0E2A16000E2B16960E315E31BE2C8F
:10244D00EF12F02AEF12F042EF12F03150800A979E
:10245D000FD8B034EF12F036EF12F038EF12F0FB68
:10246D00EF11F0D8902B322A3229322832313E38F2
:10247D00EF12F05AEF12F01F0E316448EF12F04ACE
:10248D00EF12F052EF12F0FBEF11F0D89028362931
:10249D00362A362B3631063150D8A458EF12F05A61
:1024AD00EF12F04CEF12F03050D8B460EF12F06232
:1024BD00EF12F06AEF12F02B1E2A1E291E286C0057
:1024CD000E29222A222B2228C028F029C029F02AE1
:1024DD00C02AF02BC02BF012000E50D96EDA6ADE36
:1024ED00CFF6FFDDCFF7FF0800F550250AD8A482FF
:1024FD00EF12F084EF12F024EF13F00E50D96EDAD4
:10250D006ADE2A000EDD22000E466E000E456E4577
:10251D00C04BF0476848680E50D96EDA6ADECF12AC
:10252D00F0DDCF13F012C0F6FF13C0F7FF0800F572
:10253D0050750AD8A4A5EF12F0A7EF12F01CEF13F7
:10254D00F00F50D96EDA6A020EDF26DF5CD96EDA33
:10255D006ADECF14F0DECF15F0010E1224106E00DE
:10256D000E1320116E0E50D96EDA6A10C0DEFF11F7
:10257D00C0DDFF10EF13F0200E186E180618506016
:10258D000FD96EDA6A14C008F015C009F0000E0BF1
:10259D006E0A0E0A6EBDEC10F00850300FDF6E148F
:1025AD00C001F015C002F0000E046E0A0E036E613C
:1025BD00EC11F001C014F002C015F014501510D834
:1025CD00B4EBEF12F0EDEF12F005EF13F01850D859
:1025DD00A4F3EF12F0F5EF12F0C4EF12F005EF13C4
:1025ED00F01850600FD96EDA6ADF50106E1050017E
:1025FD006E026A0DC003F09BEC11F0182A200E1824
:10260D0018D8A40CEF13F00EEF13F0F7EF12F0350E
:10261D00EF13F012C0F6FF13C0F7FF0800F5507569
:10262D000AD8B4C2EF12F01CEF13F00E50D96EDAC7
:10263D006ADE2A000EDD2235EF13F00E50D96EDA68
:10264D006ADECFF6FFDDCFF7FF0800F550016E0211
:10265D006A0DC003F09BEC11F01CEF13F012000992
:10266D006E0950D8B43DEF13F03FEF13F061EF1347
:10267D00F004BE46EF13F044EF13F061EF13F001D9
:10268D00C005F002C006F003C007F004C008F00555
:10269D001E061E071E081E052A000E06220722080A
:1026AD002205C00BF006C00CF007C00DF008C00EDF
:1026BD00F069EF13F001C00BF002C00CF003C00D78
:1026CD00F004C00EF00150021003100410D8A472D3
:1026DD00EF13F074EF13F07EEF13F0000E016E00A8
:1026ED000E026E000E036E000E046E0FEF14F096C8
:1026FD000E0A6E88EF13F00A2AD8900E320D320CA6
:10270D00320B32000E0B14056E000E0C14066E000B
:10271D000E0D14076EFE0E0E14086E0550061007F2
:10272D00100810D8A49DEF13F09FEF13F082EF1354
:10273D00F0ADEF13F00A2A010E0B26000E0C220D40
:10274D00220E22D8900E320D320C320B32000E0BAF
:10275D0014056E000E0C14066E000E0D14076EFFA0
:10276D000E0E14086E0550061007100810D8A4C2DE
:10277D00EF13F0C4EF13F0A1EF13F0CCEF13F00A49
:10278D0006D8900B360C360D360E360DBED1EF1326
:10279D00F0D3EF13F0DBEF13F0020E0A60D9EF1355
:1027AD00F0DBEF13F0C6EF13F00AB0E0EF13F0E239
:1027BD00EF13F0E3EF13F00D9ED8900A320AC00527
:1027CD00F0066A076A086A05C008F0076A066A0516
:1027DD006A05500B1206500C1207500D1208500EC0
:1027ED00120950D8B4FDEF13F0FFEF13F007EF14FB
:1027FD00F004BE06EF14F004EF14F007EF14F00E22
:10280D008E0BC001F00CC002F00DC003F00EC00421
:10281D00F01200000E426E000E416E000E3D6E0075
:10282D000E3C6E000E3F6E000E3E6EACEC0FF004D3
:10283D000E42EC10F001C03AF002C03BF0F60E1360
:10284D006E280E146EBC0E156E400E166E3AC0013B
:10285D00F03BC002F0036A046A000E36EC13F0017F
:10286D00C00FF002C010F003C011F004C012F0E868
:10287D00EC15F00FC028F010C029F011C02AF0128D
:10288D00C02BF0F0EC11F028C043F029C044F071DA
:10289D000E435C170E4458D8A057EF14F059EF149F
:1028AD00F05DEF14F0170E446E700E436E320E1F76
:1028BD006EF70E206E2F0E216E43C022F044C02302
:1028CD00F0C6EC0FF043503E1809E144503F18D8C4
:1028DD00B473EF14F075EF14F083EF14F043C03EB2
:1028ED00F044C03FF0000E066E300E056E320E073E
:1028FD006E040E086EEFEC10F0030E046EE80E037E
:10290D006E43C001F044C002F061EC11F001C0084B
:10291D00F002C009F0000E0B6E0A0E0A6EBDEC102F
:10292D00F00850500FD96EDA6ADF504C6E000E046D
:10293D006E640E036E43C001F044C002F061EC11F1
:10294D00F001C008F002C009F0000E0B6E0A0E0A6D
:10295D006EBDEC10F00850500FD96EDA6ADF504D95
:10296D006E000E046E0A0E036E43C001F044C002E9
:10297D00F061EC11F001C008F002C009F0000E0B7F
:10298D006E0A0E0A6EBDEC10F00850500FD96EDABB
:10299D006ADF504E6E43C008F044C009F0000E0BC4
:1029AD006E0A0E0A6EBDEC10F00850500FD96EDA9B
:1029BD006ADF504F6E4C0E016E8BEC10F0010E273E
:1029CD00EC11F0406E0E0E4018D8A4F0EF14F0F29A
:1029DD00EF14F0F8EF14F0000E426E010E416E256B
:1029ED00EF15F00D0E4018D8A4FFEF14F001EF1500
:1029FD00F007EF15F0000E426E020E416E25EF1539
:102A0D00F00B0E4018D8A40EEF15F010EF15F016C0
:102A1D00EF15F0000E426E030E416E25EF15F00717
:102A2D000E4018D8A41DEF15F01FEF15F025EF156A
:102A3D00F0000E426E040E416E25EF15F03C504134
:102A4D001809E13D504218D8B42FEF15F031EF15AC
:102A5D00F043EF15F081908192819C819E41C03CA5
:102A6D00F042C03DF0000E066E500E056E410E0791
:102A7D006E010E086EEFEC10F041044210D8A44A1E
:102A8D00EF15F04CEF15F070EF15F0494A4A2A3367
:102A9D000E49184A10D8A456EF15F058EF15F01E30
:102AAD00EF14F081A05DEF15F060EF15F0818061FE
:102ABD00EF15F0819081A266EF15F069EF15F081A9
:102ACD00826AEF15F08192000E4A6E000E496E1E5D
:102ADD00EF14F0020E41184210D8A478EF15F07AD9
:102AED00EF15F09AEF15F0494A4A2A330E49184A64
:102AFD0010D8A484EF15F086EF15F01EEF14F081B9
:102B0D00AC8BEF15F08EEF15F0818C8FEF15F081FA
:102B1D009C81AE94EF15F097EF15F0818E98EF151F
:102B2D00F0819E6AEF15F0030E41184210D8A4A251
:102B3D00EF15F0A4EF15F0D6EF15F0494A4A2A33F8
:102B4D000E49184A10D8A4AEEF15F0B0EF15F01ECF
:102B5D00EF14F081A0B5EF15F0B8EF15F08180B945
:102B6D00EF15F0819081A2BEEF15F0C1EF15F08148
:102B7D0082C2EF15F0819281ACC7EF15F0CAEF1547
:102B8D00F0818CCBEF15F0819C81AED0EF15F0D399
:102B9D00EF15F0818ED4EF15F0819E6AEF15F004DC
:102BAD000E41184210D8A4DEEF15F0E0EF15F01E1F
:102BBD00EF14F081908192819C819E1EEF14F0FEA6
:102BCD00EF17F01250800B1B6E12501224216E1154
:102BDD00AEF3EF15F0F5EF15F0F6EF15F0218021BE
:102BED0050D8B4FCEF15F0FEEF15F011EF16F021F3
:102BFD0028D8A404EF16F006EF16F00EEF16F0002D
:102C0D000E0F6E000E106E000E116E000E126E1174
:102C1D008E19EF16F0000E0F6E000E106E000E11D5
:102C2D006E000E126E1650800B1B1A1650162420B5
:102C3D006E15AE24EF16F026EF16F027EF16F020E6
:102C4D00802050D8B42DEF16F02FEF16F042EF166E
:102C5D00F02028D8A435EF16F037EF16F03FEF1619
:102C6D00F0000E136E000E146E000E156E000E1693
:102C7D006E158E4AEF16F0000E136E000E146E00D8
:102C8D000E156E000E166E2050D8B450EF16F05281
:102C9D00EF16F05AEF16F02150D8A458EF16F05A4F
:102CAD00EF16F064EF16F0000E0F6E000E106E00B2
:102CBD000E116E000E126EFAEF17F015500F02F393
:102CCD00CF26F0F4CF27F026501C6E1D6A1E6A1F0A
:102CDD006A2750226E236A246A256A14501002F363
:102CED00CF26F0F4CF27F026501C26000E1D221EF5
:102CFD00221F2227502226000E23222422252213B2
:102D0D00501102F3CF26F0F4CF27F026501C2600E9
:102D1D000E1D221E221F2227502226000E232224A2
:102D2D002225221EC01FF01DC01EF01CC01DF01C50
:102D3D006A13501002F3CF26F0F4CF27F026501C63
:102D4D002627501D22000E1E22000E1F2214500F8A
:102D5D0002F3CF26F0F4CF27F026501C2627501D66
:102D6D0022000E1E22000E1F221EC01FF01DC01EAF
:102D7D00F01CC01DF01C6A13500F02F3CF26F0F4A7
:102D8D00CF27F026501C2627501D22000E1E220094
:102D9D000E1F2215501002F3CF26F0F4CF27F02688
:102DAD0050222627502322000E2422000E25221405
:102DBD00501102F3CF26F0F4CF27F026502226270C
:102DCD00502322000E2422000E252215501102F34D
:102DDD00CF26F0F4CF27F02650176E2750186E1916
:102DED006A1A6A19C01AF018C019F017C018F0172E
:102DFD006A1750222618502322195024221A5025C2
:102E0D00221CC017F01DC018F01EC019F01FC01AEB
:102E1D00F0190E17EF17F0D8901A32193218321721
:102E2D0032E82E12EF17F0175022261850232219D0
:102E3D005024221A5025221EC01FF01DC01EF01C4A
:102E4D00C01DF01C6A205021C017F0186A1726000B
:102E5D000E1822820E1724266EFF0E1820276E4D97
:102E6D00EF17F0D89022362336243625361FAE4282
:102E7D00EF17F044EF17F045EF17F02280D8901CB4
:102E8D00361D361E361F362606D8A0270624AE520E
:102E9D00EF17F054EF17F038EF17F0206A1FAE5A06
:102EAD00EF17F05CEF17F080EF17F0FF0E1C141703
:102EBD006EFF0E1D14186EFF0E1E14196E7F0E1F61
:102ECD00141A6E1750181019101A10D8B471EF1774
:102EDD00F073EF17F077EF17F0010E206E80EF17FC
:102EED00F022A07CEF17F07EEF17F080EF17F07354
:102EFD00EF17F02050D8B486EF17F088EF17F0AC2D
:102F0D00EF17F0010E2226000E2322242225222562
:102F1D00A093EF17F095EF17F0ACEF17F022C01755
:102F2D00F023C018F024C019F025C01AF01A341A75
:102F3D003219321832173217C022F018C023F01987
:102F4D00C024F01AC025F0264A272A27BEB7EF174E
:102F5D00F0275008E12628D8A0B7EF17F0B9EF17E2
:102F6D00F0C3EF17F0000E226E000E236E800E24BC
:102F7D006E7F0E256EF0EF17F027BED0EF17F027FE
:102F8D005006E12604D8B0CEEF17F0D0EF17F0DBE6
:102F9D00EF17F0000E226E000E236E000E246E0051
:102FAD000E256E1B6AF0EF17F026C021F0FF0E22E2
:102FBD0016FF0E23167F0E2416000E251621A0EAED
:102FCD00EF17F0ECEF17F0EDEF17F0248ED89021FE
:102FDD0030256E1B50251222C00FF023C010F02497
:0E2FED00C011F025C012F01200002575000082
:042FFC0021EF10F0C1
:020000040020DA
:08000000FFFFFFFFFFFFFFFF00
:020000040030CA
:0E000000FF071F1FFF8285FF0FC00FE00F409C
:00000001FF
