:020000040000FA
:04000000FEEF17F008
:102B1200000EF66E300EF76E000EF86E0900F5CF5D
:102B220028F0000EF86E0001C9EF16F06150036E36
:102B3200046AD89003360436D89003360436D89007
:102B4200033604366238E842070B070B056E066A45
:102B520003500510076E04500610086E07C001F0FE
:102B620008C002F01200026E01B0BAEF15F0BDEF1C
:102B720015F08282BEEF15F0829202C083FF82843A
:102B82008294958E828082928284829483BECCEFDC
:102B920015F0CEEF15F0C5EF15F08290959E12005C
:102BA200939493861F0E6F166F8E800E6E18D8A4A4
:102BB200DDEF15F0DFEF15F0D6EF15F0776AE10ED5
:102BC200706E1B0E716E030E726E0D01D46B1F0EB2
:102BD2006F166F506E50D8A4F1EF15F0F3EF15F0A9
:102BE200EBEF15F0606A608A608C1200000E016ED5
:102BF2000550B4EC15F014EF16F0010E016E03C08F
:102C0200F6FF04C0F7FFF86A050EF76403D0080068
:102C1200F55005D0F6CFE9FFF7CFEAFFEF50B4EC5D
:102C220015F0034A042A03C0F6FF04C0F7FFF86A4E
:102C3200050EF76403D00800F55005D0F6CFE9FF82
:102C4200F7CFEAFFEF500009D8A42AEF16F02CEFD5
:102C520016F0FEEF15F0120060AE32EF16F034EF10
:102C620016F071EF16F097EC15F00950D96EDA6A8A
:102C720001C0DEFF02C0DDFF0B50D96EDA6A65CFFC
:102C8200DFFF660E0F6E0F0E106E000E126E000E3C
:102C9200116E5AEF16F011500F24D96E12501020F7
:102CA200DA6E0A501124E16EE26ADFCFE7FF114AC1
:102CB200122A0B50D96EDA6ADF500C6E0D6A0C5074
:102CC200115C1250800A0E6E0D50800A0E58D8A068
:102CD2006DEF16F06FEF16F04CEF16F0609EA490B9
:102CE2000B50D96EDA6ADF6A1200956A9450F80BBB
:102CF200946E8290C30E036ECD0EE82EFED7032E85
:102D0200FCD70000000E016E330EB4EC15F01B0E62
:102D1200036E9E0EE82EFED7032EFCD700D0000EC7
:102D2200016E330EB4EC15F0A60EE82EFED700D0DD
:102D3200000E016E330EB4EC15F000D000D000008E
:102D4200000E016E020EB4EC15F0A60EE82EFED7B0
:102D520000D0000E016E380EB4EC15F0A60EE82E6F
:102D6200FED700D0000E016E010EB4EC15F0040E79
:102D7200036E3E0EE82EFED7032EFCD7000E016E28
:102D82000C0EB4EC15F0A60EE82EFED700D0120001
:102D9200000E256E000E246E000E276E000E266EAB
:102DA200000E1D6E000E1E6E000E1F6E000E206EB7
:102DB20076EC16F0D1EC15F0080E936E816AD90EFE
:102DC200036E2F0E046E800E056EF7EC15F0210EC9
:102DD200096E150E0A6E230E0B6E2DEC16F015EF12
:102DE20017F0196A150E036E046AC00E056EF7EC31
:102DF20015F033EF17F0176A150E036E046AC50E4D
:102E0200056EF7EC15F033EF17F0166A150E036E28
:102E1200046AC80E056EF7EC15F033EF17F015C013
:102E220024F0256A33EF17F021C013F022C014F00A
:102E32001450000AD8B420EF17F033EF17F01350F4
:102E4200100AD8B4FCEF16F0300AD8B406EF17F027
:102E5200100AD8B4F2EF16F0600AD8B410EF17F0E7
:102E620033EF17F0010E1D26000E1E221F22202214
:102E720020501F100BE1E80E1D5C030E1E58D8A057
:102E820045EF17F047EF17F060EF17F0000E1D6ED9
:102E9200000E1E6E000E1F6E000E206E819081923B
:102EA200819C819E26502710D8B45AEF17F05DEF0F
:102EB20017F0010E5EEF17F0000E266E276A24044B
:102EC2002510D8A467EF17F069EF17F08AEF17F013
:102ED20026502710D8B470EF17F072EF17F07EEF7C
:102EE20017F0F60E036E2F0E046ECD0E056EF7EC84
:102EF20015F081808182E8EF16F0EA0E036E2F0E44
:102F0200046ECD0E056EF7EC15F081908192E8EF1C
:102F120016F0020E24182510D8A492EF17F094EFA1
:102F220017F0B5EF17F026502710D8B49BEF17F023
:102F32009DEF17F0A9EF17F0EE0E036E2F0E046E41
:102F4200CD0E056EF7EC15F0818C818EE8EF16F050
:102F5200EA0E036E2F0E046ECD0E056EF7EC15F021
:102F6200819C819EE8EF16F0030E24182510D8A448
:102F7200BDEF17F0BFEF17F0E0EF17F02650271064
:102F8200D8B4C6EF17F0C8EF17F0D4EF17F0F20E6F
:102F9200036E2F0E046ECD0E056EF7EC15F08180D8
:102FA2008182A5EF17F0EA0E036E2F0E046ECD0E8E
:102FB200056EF7EC15F081908192B1EF17F0EA0EF1
:102FC200036E2F0E046ECD0E056EF7EC15F0DCEFDE
:102FD20017F0FEEF17F00052504D20535044204797
:102FE20045415220494E4400202020003C3D3D00F6
:092FF2003C3D3E003D3D3E000067
:052FFC0089EF15F00152
:020000040020DA
:08000000FFFFFFFFFFFFFFFF00
:020000040030CA
:0E000000FF071F1FFF8285FF0FC00FE00F409C
:00000001FF
